:100000000C9451010C9482010C9482010C94820195
:100010000C9482010C9482010C9482010C94820154
:100020000C9482010C9482010C9482010C94820144
:100030000C9482010C9482010C9482010C94820134
:100040000C9482010C9404080C9482010C9482019B
:100050000C9482010C9482010C9482010C94300760
:100060000C9482010C9482010C9482010C94820104
:100070000C9482010C9482010C9482010C948201F4
:100080000C94D6070C9482010C9482010C9482018A
:100090000C9482010C9482010C9482010C948201D4
:1000A0000C9482010C9482010C94A8070C94820198
:1000B0000C9482010C9482010C9482010C947A07B6
:1000C0000C9482010C9482010C9482010C948201A4
:1000D0000C9482010C9482010C9482010C94820194
:1000E0000C9482010C94A6020C94E1020C94180367
:1000F0000C94E1010C94F8010C942C030C9437023D
:100100000C9404020C9417020C9411020C944003FA
:100110000C94D9020C94980D0C940D020C94AE0220
:100120000C94BD020C9425020C94FF020C941B024B
:100130000C9400020C940E030C94B3020C94EB028A
:100140000C942D020C9407020C94F5020C9484017B
:100150000C9436030C9433020C9429020C94E6019F
:100160000C94C7020C941F020C94FC010C94B7036E
:100170000C942A070C9422030C94D1020C94B8031B
:1001800000002100240027002A002D003000330049
:1001900001010000040107010A01000022002500FE
:1001A00028002B002E003100340002010000050160
:1001B00008010B0100000A0B02090C0D0E080703D1
:1001C000040100000000000000000000000000002A
:1001D000000000000000000000000000000000001F
:1001E00012111000000000000000000000000000DC
:1001F00000000000000000000000000020002300BC
:10020000260029002C002F0032000001000003010D
:100210000601090105050505070508080808020289
:1002200002020A0A08080404040401010101010190
:1002300001010303030303030303040707070C0C73
:100240000C0C0C0C0C0C020202020606060606063A
:1002500006060B0B0B0B0B0B0B0B010210202008DF
:100260000810204010204080020102010804020111
:100270000102040810204080804020100804020180
:1002800080040201804020100804020108040201D9
:100290000102040810204080010204081020408060
:1002A000980D11241FBECFEFD1E2DEBFCDBF00E01D
:1002B0000CBF12E0A0E0B2E0E6EFF0E200E00BBF1E
:1002C00002C007900D92A036B107D9F723E0A0E64F
:1002D000B2E001C01D92A233B207E1F711E0C1E51F
:1002E000D1E000E006C021970109802FFE010E94A5
:1002F0007110C035D10780E00807A9F70E94920865
:100300000C9479100C940000AF92BF92CF92DF92C0
:10031000EF92FF920F931F93CF93DF936C017B01BA
:100320008B01040F151FEB015E01AE18BF08C0174B
:10033000D10759F06991D601ED91FC910190F081BE
:10034000E02DC6011995892B79F7C501DF91CF9171
:100350001F910F91FF90EF90DF90CF90BF90AF90E3
:100360000895282F30E0F901EC54FE4F9491F901E3
:10037000E65AFD4F44912C5E3D4FF9012491222312
:1003800009F435C0992311F191509231F8F4E92F15
:10039000F0E08827E153FE4F8F4F0C94711000025C
:1003A0000402E101F801FC01E60107020D0211025D
:1003B00017021B021F0225022902E6012D02330249
:1003C0003702809180008F7780938000E22FF0E0E9
:1003D000EE0FFF1FE656FE4FA591B4918FB7F8942C
:1003E000EC91611148C040954E234C938FBF089506
:1003F000809180008F7DE8CF80918000877FE4CF5F
:1004000084B58F7784BDE2CF84B58F7DFBCF80919B
:10041000B0008F778093B000D9CF8091B0008F7DEE
:10042000F9CF809190008F7780939000CFCF80910B
:1004300090008F7DF9CF80919000877FF5CF8091DC
:10044000A0008F778093A000C1CF8091A0008F7D06
:10045000F9CF8091A000877FF5CF809120018F7721
:1004600080932001B3CF809120018F7DF9CF8091BF
:100470002001877FF5CF4E2BB8CFCF93DF9390E04D
:10048000FC01E65AFD4F24918C5E9D4FFC01849146
:100490008823D1F090E0880F991FFC01E058FE4FAF
:1004A000A591B491FC01E656FE4FC591D49161111E
:1004B0000EC09FB7F8948C91E22FE0958E238C9319
:1004C0002881E223E8839FBFDF91CF9108958FB702
:1004D000F894EC91E22BEC938FBFF6CF1F93CF9360
:1004E000DF93182FEB0161E00E943D02209739F461
:1004F00060E0812FDF91CF911F910C94B101CF3F2C
:10050000D10511F461E0F5CFE12FF0E0EC54FE4F9E
:10051000E491E150E23108F0B3C0F0E08827EC56F6
:10052000FD4F8F4F0C947110A602AE02B302BD02B4
:10053000C7024003D102D902E102EB02F502FF0239
:100540000E031803400322032C03360384B580688E
:1005500084BDC7BDDF91CF911F91089584B580629E
:1005600084BDC8BDF7CF80918000806880938000F3
:10057000D0938900C0938800EDCF80918000806285
:1005800080938000D0938B00C0938A00E3CF80914A
:100590008000886080938000D0938D00C0938C0091
:1005A000D9CF8091B00080688093B000C093B30031
:1005B000D1CF8091B00080628093B000C093B4002E
:1005C000C9CF80919000806880939000D09399006B
:1005D000C0939800BFCF809190008062809390007C
:1005E000D0939B00C0939A00B5CF80919000886013
:1005F00080939000D0939D00C0939C00ABCF8091DE
:10060000A00080688093A0008091A0008F7B8093E1
:10061000A000D093A900C093A8009CCF8091A00017
:1006200080628093A000D093AB00C093AA0092CFC9
:100630008091A00088608093A000D093AD00C0930B
:10064000AC0088CF80912001806880932001D093F6
:100650002901C09328017ECF809120018062809380
:100660002001D0932B01C0932A0174CF80912001E7
:10067000886080932001D0932D01C0932C016ACF14
:10068000C038D1050CF03ECF33CF865320917B008C
:10069000982F987F277F922B90937B0087708064A0
:1006A00080937C0080917A00806480937A008091AE
:1006B0007A0086FDFCCF80917800909179000895B2
:1006C0003FB7F8948091FA029091FB02A091FC024E
:1006D000B091FD0226B5A89B05C02F3F19F00196E9
:1006E000A11DB11D3FBFBA2FA92F982F8827BC018C
:1006F000CD01620F711D811D911D42E0660F771FB4
:10070000881F991F4A95D1F708958F929F92AF92B3
:10071000BF92CF92DF92EF92FF924B015C010E9459
:1007200060036B017C010E9460036C197D098E09D6
:100730009F09683E734081059105A8F321E0821A64
:100740009108A108B10888EEC80E83E0D81EE11C0C
:10075000F11C81149104A104B10429F7FF90EF90DA
:10076000DF90CF90BF90AF909F908F9008950895A5
:1007700090E080E008958F929F92AF92BF92FF9297
:100780000F931F93CF93DF93FC01F0808FE28F15BF
:1007900008F44AC0828108E512E0081B110987FDB0
:1007A0001395000F111F000F111F8181C8E8D0E0C1
:1007B000C81BD10987FDD395CC0FDD1FCC0FDD1FE2
:1007C0004E010D2E000CAA08BB089801012E000C4A
:1007D000440B550B281939094A095B09DB010E94B2
:1007E000F00D24EB30E040E050E00E94C60D820E98
:1007F000931EA41EB51E8C169D062CF0E8018016D3
:1008000091060CF4E4012297CC0FDD1F2FB7F8946A
:100810008F2D90E0FC01EE0FFF1FE80FF91FEB5941
:10082000FD4FD283C1832FBFDF91CF911F910F91D5
:10083000FF90BF90AF909F908F9008951F93CF939C
:10084000DF93EC01162F8881803308F04EC061E001
:10085000812F0E943D028881282F30E0F901EE0FA0
:10086000FF1FE20FF31FEB59FD4F1F736081607C88
:10087000612B608319821A822CE0622F0E9465101E
:10088000829FB001112430E020E0AB01420F531FE2
:10089000FA01EE0FFF1FE40FF51FEB59FD4F90819A
:1008A00096FD16C02F5F3F4F2C30310571F7813018
:1008B00009F51092800082E08093810010928500FB
:1008C00010928400B19A80916F00826080936F00D3
:1008D000E8818E2F90E0FC01EE0FFF1FE80FF91F5B
:1008E000EB59FD4F8081806480838881DF91CF91B7
:1008F0001F910895823061F41092900080939100CE
:10090000109295001092940088BB80937100E0CF04
:10091000833069F41092A00082E08093A1001092CD
:10092000A5001092A40089BB80937200D1CF8111E1
:10093000CFCF1092200182E08093210110922501F7
:10094000109224018ABB80937300C2CFAF92BF92F2
:10095000CF92DF92EF92FF920F931F93CF93DF938B
:100960006B017A01EC01C05ADD4F28813CE0389FD1
:100970008001399F100D1124A0906402B12C27FF33
:100980001FC0FB011182108288818F5F888388815C
:100990009801280F311D87FD3A95F6012A153B0570
:1009A0001CF488818C30C4F180819181049680345C
:1009B0009C4908F473C0F60180819181049670C04F
:1009C00088819801280F311D87FD3A952A153B052E
:1009D000DCF68881A801480F511D87FD5A95FA0160
:1009E000EE0FFF1FE40FF51FEB59FD4F808186FFCF
:1009F000CBCF8881F801E80FF11D87FDFA95CF0173
:100A0000EE0FFF1FE80FF91FEB59FD4F808160E0EB
:100A10008F730E94B101B8CF808191812881A80194
:100A2000420F511D27FD5A959A01FA01EE0FFF1F43
:100A3000E20FF31FEB59FD4F21813281820F931F8B
:100A4000F7019183808388819801280F311D87FDEC
:100A50003A95F901EE0FFF1FE20FF31FEB59FD4F1F
:100A6000808186FF22C08881080F111D87FD1A959D
:100A7000F801EE0FFF1FE00FF11FEB59FD4F8081D2
:100A800061E08F73DF91CF911F910F91FF90EF90F5
:100A9000DF90CF90BF90AF900C94B10180E49CE9BF
:100AA000F701918380838FEF8883DF91CF911F912E
:100AB0000F91FF90EF90DF90CF90BF90AF9008958F
:100AC000FC0101900020E9F73197AF01481B590B59
:100AD000BC018AE193E00C9484018F929F92AF92C3
:100AE000BF920F931F93CF93DF93CDB7DEB7A1973C
:100AF0000FB6F894DEBF0FBECDBF19A2423008F486
:100B00004AE08E010F5D1F4F842E912CB12CA12C39
:100B1000A50194010E94F80DE62FB901CA01EA303F
:100B2000F4F4E05DD801EE938D01232B242B252BCB
:100B300079F790E080E0109719F0CD010E946005F0
:100B4000A1960FB6F894DEBF0FBECDBFDF91CF9157
:100B50001F910F91BF90AF909F908F900895E95C87
:100B6000E1CF0F931F9390E0FC01E65AFD4F649193
:100B7000FC01EC5EFD4FE491F0E0EE0FFF1FE6504C
:100B8000FE4F8591949100E412E42FE030E0462F6F
:100B90000E943208611571058105910529F06F5F8A
:100BA0007F4F8F4F9F4F9F701F910F910895CF934D
:100BB000DF93EC0160E08E810E94B10161E08E81E3
:100BC0000E94B10160E08E810E94B1018BE891E04A
:100BD0000197F1F7DF91CF910895CF92DF92EF92D5
:100BE000FF920F931F93CF93DF936C017C0187E0FB
:100BF000E80EF11CD0E0C0E0062F10E0B8010C2E8A
:100C000002C0759567950A94E2F76170F7018191CA
:100C10007F010E94B1012196C430D10579F7C60148
:100C2000DF91CF911F910F91FF90EF90DF90CF90C8
:100C30000C94D705CF92DF92EF92FF920F931F9300
:100C4000CF93DF93EC01F62E642F8C810E94B101CB
:100C50008D818F3F19F060E00E94B1010F2D10E0EF
:100C60008F8584FF25C06E0187E0C80ED11CF12C52
:100C7000E12CB8010E2C02C0759567950A94E2F735
:100C80006170F60181916F010E94B101FFEFEF1ACF
:100C9000FF0A88E0E816F10461F7CE01DF91CF91F9
:100CA0001F910F91FF90EF90DF90CF900C94D7059C
:100CB000B80184E0759567958A95E1F7CE010E94A9
:100CC000ED056F2DCE01DF91CF911F910F91FF9018
:100CD000EF90DF90CF900C94ED0540E0682F8AE113
:100CE00093E00C941A0681E00E946D068BE39FE16D
:100CF0000197F1F70895CF93DF93823029F4909113
:100D0000290398609093290380932D0310922E035A
:100D100080E480932F0380E18093300380E580930B
:100D2000310361E080911E030E943D0280911F0308
:100D30008F3F19F061E00E943D0261E08091200345
:100D40000E943D02CAE1D3E09E012A5133408091C6
:100D5000290384FD0BC084E090E021962817390711
:100D600044F461E08E810E943D02EECF88E090E085
:100D7000F4CF8BE39DE00197F1F760E080911E03D3
:100D80000E94B10160E0809120030E94B101809136
:100D90001F038F3F19F060E00E94B1018091290389
:100DA00084FD34C063E08AE193E00E94ED05CBE46A
:100DB000D6E4CE010197F1F763E08AE193E00E9467
:100DC000ED052197F1F763E08AE193E00E94ED05DC
:100DD00083E592E00197F1F762E08AE193E00E94F7
:100DE000ED058091290380620E946D0684E0809366
:100DF0002A038CE00E946D060E94730682E08093B5
:100E00002B0386E0DF91CF910C946D0680620E94E7
:100E10006D068BE496E40197F1F7809129038062D7
:100E20000E946D0683E592E00197F1F78091290316
:100E300080620E946D06D5CF90912D03891710F026
:100E40008FEF890FE82FF0E0E65EFC4F8489806821
:100E50000C946D0641E00E941A0681E090E008952E
:100E60001F920F920FB60F9211242F933F938F93DF
:100E70009F93AF93BF938091F6029091F702A09158
:100E8000F802B091F9023091F50223E0230F2D37DB
:100E900058F50196A11DB11D2093F5028093F6022D
:100EA0009093F702A093F802B093F9028091FA02AE
:100EB0009091FB02A091FC02B091FD020196A11D50
:100EC000B11D8093FA029093FB02A093FC02B093B1
:100ED000FD02BF91AF919F918F913F912F910F9004
:100EE0000FBE0F901F90189526E8230F0296A11DA4
:100EF000B11DD2CF1F920F920FB60F9211240BB6D5
:100F00000F922F933F934F935F936F937F938F93A2
:100F10009F93AF93BF93EF93FF9348E251E064E256
:100F200071E090E080E00E94A604FF91EF91BF91F4
:100F3000AF919F918F917F916F915F914F913F9171
:100F40002F910F900BBE0F900FBE0F901F90189512
:100F50001F920F920FB60F9211240BB60F922F9380
:100F60003F934F935F936F937F938F939F93AF9331
:100F7000BF93EF93FF9348EA50E064EA70E083E0A8
:100F800090E00E94A604FF91EF91BF91AF919F91D5
:100F90008F917F916F915F914F913F912F910F9022
:100FA0000BBE0F900FBE0F901F9018951F920F92BF
:100FB0000FB60F9211240BB60F922F933F934F93BE
:100FC0005F936F937F938F939F93AF93BF93EF93B1
:100FD000FF9348E950E064E970E082E090E00E940D
:100FE000A604FF91EF91BF91AF919F918F917F9157
:100FF0006F915F914F913F912F910F900BBE0F908A
:101000000FBE0F901F9018951F920F920FB60F9260
:1010100011240BB60F922F933F934F935F936F93CF
:101020007F938F939F93AF93BF93EF93FF9348E882
:1010300050E064E870E081E090E00E94A604FF9137
:10104000EF91BF91AF919F918F917F916F915F9140
:101050004F913F912F910F900BBE0F900FBE0F90AD
:101060001F901895CF92DF92EF92FF920F931F93EC
:10107000E82FF92F05C0015011092109310961F14B
:10108000908196239417B9F305C0015011092109E5
:10109000310911F1908196239413F7CFC12CD12CF3
:1010A000E12CF12C0AC08FEFC81AD80AE80AF80A16
:1010B0000C151D052E053F0579F0808186238417C8
:1010C00091F36C2D7D2D8E2D9F2D1F910F91FF90F3
:1010D000EF90DF90CF90089560E070E080E090E0C6
:1010E0001F910F91FF90EF90DF90CF900895FC013A
:1010F00090916402903398F481E0890F80936402A8
:101100009083892F90E0FC01EE0FFF1FE80FF91F7D
:10111000EB59FD4F88EB9BE09283818308958FEF1D
:1011200080830895789484B5826084BD84B581609D
:1011300084BD85B5826085BD85B5816085BD8091A2
:101140006E00816080936E0010928100809181001A
:101150008260809381008091810081608093810012
:10116000809180008160809380008091B1008460D4
:101170008093B1008091B00081608093B000809135
:1011800091008260809391008091910081608093B2
:101190009100809190008160809390008091A100E7
:1011A00082608093A1008091A10081608093A10062
:1011B0008091A00081608093A000809121018260D5
:1011C0008093210180912101816080932101809190
:1011D000200181608093200180917A008460809357
:1011E0007A0080917A00826080937A0080917A0000
:1011F000816080937A0080917A00806880937A0081
:101200001092C10061E082E00E943D0261E083E053
:101210000E943D0261E084E00E943D0261E085E0C1
:101220000E943D0261E086E00E943D0261E087E0AD
:101230000E943D0261E088E00E943D0261E089E099
:101240000E943D0261E08AE00E943D0261E08BE085
:101250000E943D0261E08CE00E943D0261E08DE071
:101260000E943D0266E270E087E093E00E941E0467
:1012700068E270E084E093E00E941E046AE270E09D
:1012800081E093E00E941E046CE270E08EEF92E039
:101290000E941E0461E086E10E943D0261E08AE155
:1012A0000E943D0261E08EE10E943D0261E082E227
:1012B0000E943D0261E08EE20E943D0260E080E318
:1012C0000E943D0261E088E10E943D0282E00E94AE
:1012D0007B0680E00E941C078CE092E00E94600583
:1012E00081E00E941C0784E192E00E94600560EDAD
:1012F00077E080E090E00E9485030E94730661E041
:1013000082E30E943D0260E084E30E943D0261E0CE
:101310008CE10E943D0261E08FE10E943D0260E0AD
:1013200081E20E943D0261E080E20E943D0261E0B4
:1013300083E20E943D0260E085E20E943D0261E09E
:1013400084E20E943D02C3E0D0E003E210E040E00E
:10135000A42E40E0B42E61E082E00E94B10161E081
:1013600085E00E94B10161E088E00E94B10161E086
:101370008BE00E94B10170E060E087E093E00E94A2
:10138000BB0370E060E084E093E00E94BB0370E088
:1013900060E081E093E00E94BB0370E060E08EEFCC
:1013A00092E00E94BB0368EB7BE080E090E00E944B
:1013B000850360E082E00E94B10160E085E00E9468
:1013C000B10160E088E00E94B10160E08BE00E9422
:1013D000B1016AE570E087E093E00E94BB036AE533
:1013E00070E084E093E00E94BB036AE570E081E076
:1013F00093E00E94BB036AE570E08EEF92E00E94EA
:10140000BB0368EE73E080E090E00E94850361E03A
:1014100082E00E94B10161E085E00E94B10161E0DB
:1014200088E00E94B10161E08BE00E94B10161E0BF
:1014300083E00E94B10160E082E00E94B10160E0BF
:1014400084E00E94B10168EE73E080E090E00E94C9
:10145000850360E083E00E94B10160E082E00E94C9
:10146000B10161E084E00E94B10170E060E087E0DA
:1014700093E00E94BB0368EB7BE080E090E00E9479
:10148000850361E083E00E94B10160E082E00E9498
:10149000B10160E084E00E94B10168EE73E080E099
:1014A00090E00E94850360E083E00E94B10161E06A
:1014B00082E00E94B10160E084E00E94B1016AE52F
:1014C00070E087E093E00E94BB0368EE73E080E089
:1014D00090E00E94850361E086E00E94B10160E037
:1014E00085E00E94B10160E087E00E94B10168EEF2
:1014F00073E080E090E00E94850360E086E00E9457
:10150000B10160E085E00E94B10161E087E00E94E6
:10151000B10170E060E084E093E00E94BB0368EBFF
:101520007BE080E090E00E94850361E086E00E941D
:10153000B10160E085E00E94B10160E087E00E94B7
:10154000B10168EE73E080E090E00E94850360E006
:1015500086E00E94B10161E085E00E94B10160E097
:1015600087E00E94B1016AE570E084E093E00E94A8
:10157000BB0368EE73E080E090E00E94850361E0C9
:1015800089E00E94B10160E088E00E94B10160E062
:101590008AE00E94B10168EE73E080E090E00E9472
:1015A000850360E089E00E94B10160E088E00E946C
:1015B000B10161E08AE00E94B10170E060E081E089
:1015C00093E00E94BB0368EB7BE080E090E00E9428
:1015D000850361E089E00E94B10160E088E00E943B
:1015E000B10160E08AE00E94B10168EE73E080E042
:1015F00090E00E94850360E089E00E94B10161E013
:1016000088E00E94B10160E08AE00E94B1016AE5D1
:1016100070E081E093E00E94BB0368EE73E080E03D
:1016200090E00E94850361E08CE00E94B10160E0DF
:101630008BE00E94B10160E08DE00E94B10168EE94
:1016400073E080E090E00E94850360E08CE00E94FF
:10165000B10160E08BE00E94B10161E08DE00E9489
:10166000B10170E060E08EEF92E00E94BB0368EB96
:101670007BE080E090E00E94850361E08CE00E94C6
:10168000B10160E08BE00E94B10160E08DE00E945A
:10169000B10168EE73E080E090E00E94850360E0B5
:1016A0008CE00E94B10161E08BE00E94B10160E03A
:1016B0008DE00E94B1016AE570E08EEF92E00E9439
:1016C000BB0368EE73E080E090E00E9485038CE34A
:1016D0000E94450397FD0196BC017595679586E1CB
:1016E0000E946E028DE30E94450397FD0196BC01A6
:1016F000759567958AE10E946E028EE30E9445030C
:1017000097FD0196BC01759567958EE10E946E026A
:101710008FE30E94450397FD0196BC01759567957F
:1017200082E20E946E0260E08EE20E94B101CE0170
:101730000197F1F761E08EE20E94B101C8010197C3
:10174000F1F760E08EE20E94B101CE010197F1F75E
:1017500080E30E94B1050E943C0F20E030E04AEA9D
:1017600053E40E94F30F20E030E44CE956E40E9479
:101770009B0E609316037093170380931803909346
:10178000190380E00E941C078CE092E00E94600533
:1017900081E00E941C078DE192E00E946005C090EC
:1017A0001603D0901703E0901803F0901903A701D7
:1017B0009601C701B6010E946010882309F411C187
:1017C00087E292E00E94600583E392E00E94600558
:1017D00068EE73E080E090E00E9485030E9473064B
:1017E00060E082E30E94B101CE010197F1F761E070
:1017F00082E30E94B101C8010197F1F760E082E342
:101800000E94B101CE010197F1F784E30E94B10576
:101810000E943C0F20E030E04AEA53E40E94F30FBC
:1018200020E030E44CE956E40E949B0E60931203E2
:1018300070931303809314039093150360E08FE17A
:101840000E94B101CE010197F1F761E08FE10E94A2
:10185000B101C8010197F1F760E08FE10E94B10189
:10186000CE010197F1F781E20E94B1050E943C0F81
:1018700020E030E04AEA53E40E94F30F20E030E435
:101880004CE956E40E949B0E60930E0370930F0385
:10189000809310039093110360E083E20E94B101F2
:1018A000CE010197F1F761E083E20E94B101C80126
:1018B0000197F1F760E083E20E94B101CE01019748
:1018C000F1F785E20E94B1050E943C0F20E030E074
:1018D0004AEA53E40E94F30F20E030E44CE956E476
:1018E0000E949B0E60930A0370930B0380930C037A
:1018F00090930D0320E030E046E953E46091160335
:101900007091170380911803909119030E94960E0D
:1019100087FFFBC061E088E10E94B10180E00E9486
:101920001C0785E392E00E94600581E00E941C078D
:1019300081E492E00E94600568EB7BE080E090E04B
:101940000E94850361E088E10E94B10168EE73E0C6
:1019500080E090E00E9485030E94730620E030E062
:1019600046E953E4609112037091130380911403CC
:10197000909115030E94960E61E087FF60E08CE174
:101980000E94B10120E030E046E953E460910E038B
:1019900070910F0380911003909111030E94960E95
:1019A00061E087FF60E080E20E94B10120E030E06A
:1019B00046E953E460910A0370910B0380910C0394
:1019C00090910D030E94960E61E087FF60E084E233
:1019D0000E94B101A114B10409F4BDCC0E94000021
:1019E000BACC26013701E89477F82FEF3FEF4FE7A5
:1019F0005FE7C301B2010E94601081110DC02FEF9B
:101A00003FEF4FE75FE7C301B2010E94960E181641
:101A10001CF48BE292E0D6CE2FEF3FEF4FE75FE46E
:101A2000C701B6010E94EE0F18161CF48FE292E077
:101A3000C9CE2FEF3FEF4FE75FECC701B6010E9421
:101A4000960E87FDF3CF20E030E0A901C701B60173
:101A50000E94960E87FF0AC041E06DE28AE193E0A2
:101A60000E941A06F7FAF094F7F8F0942AE037ED9E
:101A700043EA5BE3C701B6010E942A0E2B013C0139
:101A80000E940D0F6B017C010E943C0F9B01AC0179
:101A9000C301B2010E94290E2B013C014AE0C7019B
:101AA000B6010E946D0541E06EE28AE193E00E947A
:101AB0001A0620E030E040E251E4C301B2010E9486
:101AC000F30F2B013C010E940D0F6B01F12CE12C57
:101AD0004AE0C701B6010E946D05C701B6010E9428
:101AE0003C0F9B01AC01C301B2010E94290E20E012
:101AF00030E040E251E40E94F30F0E940D0F90E0AD
:101B000080E04AE00E946D055FCE60E088E10E94BF
:101B1000B10180E00E941C0789E492E00E94600508
:101B200081E00E941C0786E592E00E9460050ECFCE
:101B300087E093E00E94770884E093E00E947708B2
:101B400081E093E00E9477088EEF92E00E94770890
:101B5000EAE1F3E01382128284E092E091838083D1
:101B600086E384838FEF858387E3868388E3878397
:101B700089E380878AE381878BE3828713861486D3
:101B800015861686178681E00C947B06052E97FB3A
:101B90001EF400940E94DD0D57FD07D00E94F80D41
:101BA00007FC03D04EF40C94DD0D50954095309514
:101BB00021953F4F4F4F5F4F0895909580957095B9
:101BC00061957F4F8F4F9F4F08950E941A0EA59FDA
:101BD000900DB49F900DA49F800D911D1124089528
:101BE000B7FF0C94E50D0E94E50D821B930B089541
:101BF000A1E21A2EAA1BBB1BFD010DC0AA1FBB1F11
:101C0000EE1FFF1FA217B307E407F50720F0A21B82
:101C1000B30BE40BF50B661F771F881F991F1A94EF
:101C200069F760957095809590959B01AC01BD0119
:101C3000CF010895A29FB001B39FC001A39F700D73
:101C4000811D1124911DB29F700D811D1124911DC4
:101C500008955058BB27AA270E94410E0C94B40F38
:101C60000E94A60F38F00E94AD0F20F039F49F3F7C
:101C700019F426F40C94A30F0EF4E095E7FB0C94F2
:101C80009D0FE92F0E94C50F58F3BA17620773071B
:101C90008407950720F079F4A6F50C94E70F0EF46D
:101CA000E0950B2EBA2FA02D0B01B90190010C016C
:101CB000CA01A0011124FF27591B99F0593F50F484
:101CC000503E68F11A16F040A22F232F342F4427DC
:101CD000585FF3CF469537952795A795F0405395D4
:101CE000C9F77EF41F16BA0B620B730B840BBAF0A4
:101CF0009150A1F0FF0FBB1F661F771F881FC2F70F
:101D00000EC0BA0F621F731F841F48F48795779522
:101D10006795B795F7959E3F08F0B0CF9395880FDC
:101D200008F09927EE0F9795879508950E94790FEF
:101D300008F481E008950E94AF0E0C94B40F0E9445
:101D4000AD0F58F00E94A60F40F029F45F3F29F034
:101D50000C949D0F51110C94E80F0C94A30F0E944A
:101D6000C50F68F39923B1F3552391F3951B550BD8
:101D7000BB27AA2762177307840738F09F5F5F4F5E
:101D8000220F331F441FAA1FA9F335D00E2E3AF09D
:101D9000E0E832D091505040E695001CCAF72BD0B5
:101DA000FE2F29D0660F771F881FBB1F2617370706
:101DB0004807AB07B0E809F0BB0B802DBF01FF2738
:101DC00093585F4F3AF09E3F510578F00C949D0F69
:101DD0000C94E80F5F3FE4F3983ED4F38695779533
:101DE0006795B795F7959F5FC9F7880F911D9695F1
:101DF000879597F90895E1E0660F771F881FBB1F4D
:101E0000621773078407BA0720F0621B730B840BF9
:101E1000BA0BEE1F88F7E09508950E94CD0F88F069
:101E20009F5798F0B92F9927B751B0F0E1F0660F9E
:101E3000771F881F991F1AF0BA95C9F714C0B130DF
:101E400091F00E94E70FB1E008950C94E70F672F1F
:101E5000782F8827B85F39F0B93FCCF3869577950E
:101E60006795B395D9F73EF49095809570956195F7
:101E70007F4F8F4F9F4F0895E89409C097FB3EF422
:101E800090958095709561957F4F8F4F9F4F9923C7
:101E9000A9F0F92F96E9BB279395F6958795779545
:101EA0006795B795F111F8CFFAF4BB0F11F460FF05
:101EB0001BC06F5F7F4F8F4F9F4F16C0882311F05D
:101EC00096E911C0772321F09EE8872F762F05C071
:101ED000662371F096E8862F70E060E02AF09A950C
:101EE000660F771F881FDAF7880F9695879597F901
:101EF0000895990F0008550FAA0BE0E8FEEF16169B
:101F00001706E807F907C0F012161306E407F507ED
:101F100098F0621B730B840B950B39F40A2661F061
:101F2000232B242B252B21F408950A2609F4A14004
:101F3000A6958FEF811D811D089597F99F6780E811
:101F400070E060E008959FEF80EC089500240A940B
:101F50001616170618060906089500240A94121684
:101F60001306140605060895092E0394000C11F4B7
:101F7000882352F0BB0F40F4BF2B11F460FF04C064
:101F80006F5F7F4F8F4F9F4F089557FD9058440FBD
:101F9000551F59F05F3F71F04795880F97FB991FC8
:101FA00061F09F3F79F08795089512161306140685
:101FB000551FF2CF4695F1DF08C016161706180612
:101FC000991FF1CF86957105610508940895E894ED
:101FD000BB2766277727CB0197F908950E94790FD1
:101FE00008F48FEF08950E9406100C94B40F0E941D
:101FF000A60F38F00E94AD0F20F0952311F00C943D
:102000009D0F0C94A30F11240C94E80F0E94C50F90
:1020100070F3959FC1F3950F50E0551F629FF0013B
:10202000729FBB27F00DB11D639FAA27F00DB11D54
:10203000AA1F649F6627B00DA11D661F829F2227DD
:10204000B00DA11D621F739FB00DA11D621F839F64
:10205000A00D611D221F749F3327A00D611D231F3A
:10206000849F600D211D822F762F6A2F11249F5788
:1020700050409AF0F1F088234AF0EE0FFF1FBB1F8B
:10208000661F771F881F91505040A9F79E3F51054A
:1020900080F00C949D0F0C94E80F5F3FE4F3983EA2
:1020A000D4F3869577956795B795F795E7959F5FF4
:1020B000C1F7FE2B880F911D9695879597F9089586
:1020C0000E94790F880B990B0895991B79E004C041
:1020D000991F961708F0961B881F7A95C9F7809567
:1020E0000895EE0FFF1F881F8BBF0790F691E02D1C
:0620F0001994F894FFCFE3
:1020F600000000002A078401B803B7035665686923
:10210600636C650044697374616E6365006469613C
:1021160074616E63653A006E616E00696E66006F8B
:102126007666004D0056656869636C65204F5A43B4
:102136000046494E452121210056656869636C6554
:10214600204E4F5A43004E4F2046494E452121000E
:00000001FF
