:100000000C941A010C944B010C944B010C944B0171
:100010000C944B010C944B010C944B010C944B0130
:100020000C944B010C944B010C944B010C944B0120
:100030000C944B010C944B010C944B010C944B0110
:100040000C944B010C94C7040C944B010C944B0181
:100050000C944B010C944B010C944B010C94F30346
:100060000C944B010C944B010C944B010C944B01E0
:100070000C944B010C944B010C944B010C944B01D0
:100080000C9499040C944B010C944B010C944B016F
:100090000C944B010C944B010C944B010C944B01B0
:1000A0000C944B010C944B010C946B040C944B017D
:1000B0000C944B010C944B010C944B010C943D049B
:1000C0000C944B010C944B010C944B010C944B0180
:1000D0000C944B010C944B010C944B010C944B0170
:1000E0000C944B010C94F2010C9480070C94C20107
:1000F0000C94D2010C94E4010C94EE010C94B70121
:100100000C94CC010C94C8010C94D6010C94B3014E
:100110000C94BB010C94DA010C94BF010C94E00127
:100120000C949C010C94A1010C94E80100000A0BB2
:1001300002090C0D0E080703040100000000000076
:1001400000000000000000000000000000000000AF
:10015000000000000000000012111000000000006C
:10016000000000000000000000000000000000008F
:10017000000000002200250028002B002E00310086
:10018000340002010000050108010B0100002100FC
:10019000240027002A002D00300033000101000058
:1001A000040107010A0105050505070508080808F7
:1001B000020202020A0A08080404040401010101FF
:1001C00001010101030303030303030304070707FA
:1001D0000C0C0C0C0C0C0C0C02020202060606069F
:1001E000060606060B0B0B0B0B0B0B0B010210206C
:1001F000200808102040102040800201020108045D
:1002000002010102040810204080804020100804F0
:100210000201800402018040201008040201080449
:10022000020101020408102040800102040810208D
:100230004080800711241FBECFEFD1E2DEBFCDBFCB
:1002400000E00CBF12E0A0E0B2E0E2E1F0E100E08B
:100250000BBF02C007900D92A030B107D9F722E082
:10026000A0E0B2E001C01D92AA3AB207E1F711E0A6
:10027000CAE1D1E000E006C021970109802FFE010C
:100280000E94FF07C931D10780E00807A9F70E9443
:1002900010050C9407080C94000090E0FC01E45158
:1002A000FE4F24918A559E4FFC018491882399F03A
:1002B00090E0880F991FFC01E457FE4FA591B4917F
:1002C000FC01EE58FE4F859194918FB7F894EC9114
:1002D000E22BEC938FBF0895282F30E0F901E45D05
:1002E000FE4F9491F901E451FE4F44912A553E4F3F
:1002F000F9012491222309F435C0992311F1915079
:100300009231F8F4E92FF0E08827E657FE4F8F4F3F
:100310000C94FF07BB01BF019C01B301B701A10110
:10032000C201C801CC01D201D601DA01E001E40129
:10033000A101E801EE01F201809180008F778093A6
:100340008000E22FF0E0EE0FFF1FEE58FE4FA59168
:10035000B4918FB7F894EC91611148C040954E2349
:100360004C938FBF0895809180008F7DE8CF80915E
:100370008000877FE4CF84B58F7784BDE2CF84B5DA
:100380008F7DFBCF8091B0008F778093B000D9CF65
:100390008091B0008F7DF9CF809190008F7780930E
:1003A0009000CFCF809190008F7DF9CF8091900009
:1003B000877FF5CF8091A0008F778093A000C1CF79
:1003C0008091A0008F7DF9CF8091A000877FF5CF2D
:1003D000809120018F7780932001B3CF80912001FD
:1003E0008F7DF9CF80912001877FF5CF4E2BB8CF3D
:1003F0003FB7F89480919A0290919B02A0919C0241
:10040000B0919D0226B5A89B05C02F3F19F001961B
:10041000A11DB11D3FBFBA2FA92F982F8827BC015E
:10042000CD01620F711D811D911D42E0660F771F86
:10043000881F991F4A95D1F708958F929F92AF9286
:10044000BF92CF92DF92EF92FF924B015C010E942C
:10045000F8016B017C010E94F8016C197D098E097D
:100460009F09683E734081059105A8F321E0821A37
:100470009108A108B10888EEC80E83E0D81EE11CDF
:10048000F11C81149104A104B10429F7FF90EF90AD
:10049000DF90CF90BF90AF909F908F9008958F92F4
:1004A0009F92AF92BF92FF920F931F93CF93DF93D0
:1004B000FC01F0808FE28F1508F44AC0828108E5C4
:1004C00012E0081B110987FD1395000F111F000F83
:1004D000111F8181C8E8D0E0C81BD10987FDD395E1
:1004E000CC0FDD1FCC0FDD1F4E010D2E000CAA0816
:1004F000BB089801012E000C440B550B2819390933
:100500004A095B09DB010E94BA0724EB30E040E0B6
:1005100050E00E949007820E931EA41EB51E8C16FA
:100520009D062CF0E801801691060CF4E401229758
:10053000CC0FDD1F2FB7F8948F2D90E0FC01EE0F4C
:10054000FF1FE80FF91FEB5FFD4FD283C1832FBF61
:10055000DF91CF911F910F91FF90BF90AF909F902F
:100560008F9008951F93CF93DF93EC01162F88810E
:10057000803308F04DC0862F0E944D018881282FBE
:1005800030E0F901EE0FFF1FE20FF31FEB5FFD4FAD
:100590001F736081607C612B608319821A822CE05A
:1005A000622F0E94F307829FB001112430E020E007
:1005B000AB01420F531FFA01EE0FFF1FE40FF51FAF
:1005C000EB5FFD4F908196FD16C02F5F3F4F2C30A3
:1005D000310571F7813009F51092800082E0809337
:1005E00081001092850010928400B19A80916F0072
:1005F000826080936F00E8818E2F90E0FC01EE0F07
:10060000FF1FE80FF91FEB5FFD4F8081806480833F
:100610008881DF91CF911F910895823061F410920B
:10062000900080939100109295001092940088BBE6
:1006300080937100E0CF833069F41092A00082E0D3
:100640008093A1001092A5001092A40089BB809312
:100650007200D1CF8111CFCF1092200182E0809320
:10066000210110922501109224018ABB809373000E
:10067000C2CFAF92BF92CF92DF92EF92FF920F93D1
:100680001F93CF93DF936B017A01EC01C050DE4FD3
:1006900028813CE0389F8001399F100D1124A090E3
:1006A0000402B12C27FF1FC0FB0111821082888138
:1006B0008F5F888388819801280F311D87FD3A95C7
:1006C000F6012A153B051CF488818C30C4F1808129
:1006D0009181049680349C4908F473C0F6018081AE
:1006E0009181049670C088819801280F311D87FD83
:1006F0003A952A153B05DCF68881A801480F511D63
:1007000087FD5A95FA01EE0FFF1FE40FF51FEB5F0F
:10071000FD4F808186FFCBCF8881F801E80FF11D66
:1007200087FDFA95CF01EE0FFF1FE80FF91FEB5F72
:10073000FD4F808160E08F730E946C01B8CF808193
:1007400091812881A801420F511D27FD5A959A01D8
:10075000FA01EE0FFF1FE20FF31FEB5FFD4F218148
:100760003281820F931FF7019183808388819801E2
:10077000280F311D87FD3A95F901EE0FFF1FE20F9B
:10078000F31FEB5FFD4F808186FF22C08881080F39
:10079000111D87FD1A95F801EE0FFF1FE00FF11FE5
:1007A000EB5FFD4F808161E08F73DF91CF911F91EF
:1007B0000F91FF90EF90DF90CF90BF90AF900C948F
:1007C0006C0180E49CE9F701918380838FEF88833B
:1007D000DF91CF911F910F91FF90EF90DF90CF901D
:1007E000BF90AF9008951F920F920FB60F921124F1
:1007F0002F933F938F939F93AF93BF9380919602D4
:1008000090919702A0919802B0919902309195022F
:1008100023E0230F2D3758F50196A11DB11D20931C
:1008200095028093960290939702A0939802B093BA
:10083000990280919A0290919B02A0919C02B091A2
:100840009D020196A11DB11D80939A0290939B0277
:10085000A0939C02B0939D02BF91AF919F918F9105
:100860003F912F910F900FBE0F901F90189526E883
:10087000230F0296A11DB11DD2CF1F920F920FB66A
:100880000F9211240BB60F922F933F934F935F93C8
:100890006F937F938F939F93AF93BF93EF93FF9348
:1008A00048E251E064E271E090E080E00E943903A8
:1008B000FF91EF91BF91AF919F918F917F916F9138
:1008C0005F914F913F912F910F900BBE0F900FBEF4
:1008D0000F901F9018951F920F920FB60F92112430
:1008E0000BB60F922F933F934F935F936F937F932A
:1008F0008F939F93AF93BF93EF93FF9348EA50E09A
:1009000064EA70E083E090E00E943903FF91EF9188
:10091000BF91AF919F918F917F916F915F914F9117
:100920003F912F910F900BBE0F900FBE0F901F9015
:1009300018951F920F920FB60F9211240BB60F92BB
:100940002F933F934F935F936F937F938F939F93D7
:10095000AF93BF93EF93FF9348E950E064E970E0F1
:1009600082E090E00E943903FF91EF91BF91AF9137
:100970009F918F917F916F915F914F913F912F91B7
:100980000F900BBE0F900FBE0F901F9018951F92E7
:100990000F920FB60F9211240BB60F922F933F9325
:1009A0004F935F936F937F938F939F93AF93BF9377
:1009B000EF93FF9348E850E064E870E081E090E056
:1009C0000E943903FF91EF91BF91AF919F918F9159
:1009D0007F916F915F914F913F912F910F900BBE3F
:1009E0000F900FBE0F901F901895FC01909104027C
:1009F000903398F481E0890F809304029083892FCB
:100A000090E0FC01EE0FFF1FE80FF91FEB5FFD4FB9
:100A100088EB9BE09283818308958FEF8083089514
:100A2000789484B5826084BD84B5816084BD85B5C9
:100A3000826085BD85B5816085BD80916E008160D5
:100A400080936E001092810080918100826080937B
:100A5000810080918100816080938100809180007D
:100A60008160809380008091B10084608093B100A8
:100A70008091B00081608093B0008091910082608D
:100A8000809391008091910081608093910080918A
:100A900090008160809390008091A100826080939B
:100AA000A1008091A10081608093A1008091A000AD
:100AB00081608093A0008091210182608093210158
:100AC00080912101816080932101809120018160CA
:100AD0008093200180917A00846080937A008091D5
:100AE0007A00826080937A0080917A00816080939E
:100AF0007A0080917A00806880937A001092C10019
:100B000066E270E087EA92E00E94B20268E270E07A
:100B100084EA92E00E94B2026AE270E081EA92E026
:100B20000E94B2026CE270E08EE992E00E94B20292
:100B300082E00E944D0183E00E944D0184E00E940A
:100B40004D0185E00E944D0186E00E944D0187E045
:100B50000E944D0188E00E944D0189E00E944D01F4
:100B60008AE00E944D018BE00E944D018CE00E94C2
:100B70004D018DE00E944D01C0E0D0E061E082E0D7
:100B80000E946C0161E085E00E946C0161E088E0F8
:100B90000E946C0161E08CE20E946C0170E060E0F8
:100BA00087EA92E00E944F0270E060E084EA92E0FF
:100BB0000E944F0270E060E081EA92E00E944F02E2
:100BC00070E060E08EE992E00E944F0268EB7BE00B
:100BD00080E090E00E941D0260E082E00E946C01D3
:100BE00060E085E00E946C0160E088E00E946C019A
:100BF00060E08BE00E946C016AE570E087EA92E0B9
:100C00000E944F026AE570E084EA92E00E944F027F
:100C10006AE570E081EA92E00E944F026AE570E0C6
:100C20008EE992E00E944F0268EE73E080E090E06F
:100C30000E941D0261E082E00E946C0161E085E09B
:100C40000E946C0161E088E00E946C0161E08BE031
:100C50000E946C0161E083E00E946C0160E082E030
:100C60000E946C0160E084E00E946C0168EE73E019
:100C700080E090E00E941D0260E083E00E946C0131
:100C800060E082E00E946C0161E084E00E946C01FF
:100C900070E060E087EA92E00E944F0268EB7BE040
:100CA00080E090E00E941D0261E083E00E946C0100
:100CB00060E082E00E946C0160E084E00E946C01D0
:100CC00068EE73E080E090E00E941D0260E083E047
:100CD0000E946C0161E082E00E946C0160E084E0AF
:100CE0000E946C016AE570E087EA92E00E944F0280
:100CF00068EE73E080E090E00E941D0261E086E013
:100D00000E946C0160E085E00E946C0160E087E079
:100D10000E946C0168EE73E080E090E00E941D028A
:100D200060E086E00E946C0160E085E00E946C015A
:100D300061E087E00E946C0170E060E084EA92E08C
:100D40000E944F0268EB7BE080E090E00E941D0271
:100D500061E086E00E946C0160E085E00E946C0129
:100D600060E087E00E946C0168EE73E080E090E054
:100D70000E941D0260E086E00E946C0161E085E057
:100D80000E946C0160E087E00E946C016AE570E0FF
:100D900084EA92E00E944F0268EE73E080E090E007
:100DA0000E941D0261E089E00E946C0160E088E021
:100DB0000E946C0160E08AE00E946C0168EE73E0C2
:100DC00080E090E00E941D0260E089E00E946C01DA
:100DD00060E088E00E946C0161E08AE00E946C01A2
:100DE00070E060E081EA92E00E944F0268EB7BE0F5
:100DF00080E090E00E941D0261E089E00E946C01A9
:100E000060E088E00E946C0160E08AE00E946C0172
:100E100068EE73E080E090E00E941D0260E089E0EF
:100E20000E946C0161E088E00E946C0160E08AE051
:100E30000E946C016AE570E081EA92E00E944F0234
:100E400068EE73E080E090E00E941D0261E08CE0BB
:100E50000E946C0160E08BE00E946C0160E08DE01C
:100E60000E946C0168EE73E080E090E00E941D0239
:100E700060E08CE00E946C0160E08BE00E946C01FD
:100E800061E08DE00E946C0170E060E08EE992E02C
:100E90000E944F0268EB7BE080E090E00E941D0220
:100EA00061E08CE00E946C0160E08BE00E946C01CC
:100EB00060E08DE00E946C0168EE73E080E090E0FD
:100EC0000E941D0260E08CE00E946C0161E08BE0FA
:100ED0000E946C0160E08DE00E946C016AE570E0A8
:100EE0008EE992E00E944F0268EE73E080E090E0AD
:100EF0000E941D02209709F441CE0E9400003ECEC0
:100F000087EA92E00E94F50484EA92E00E94F504E8
:100F100081EA92E00E94F5048EE992E00C94F504D7
:100F2000052E97FB1EF400940E94A70757FD07D0DB
:100F30000E94C20707FC03D04EF40C94A7075095FB
:100F40004095309521953F4F4F4F5F4F08959095B5
:100F50008095709561957F4F8F4F9F4F08950E94A8
:100F6000E407A59F900DB49F900DA49F800D911D47
:100F700011240895B7FF0C94AF070E94AF07821B9E
:100F8000930B0895A1E21A2EAA1BBB1BFD010DC0F5
:100F9000AA1FBB1FEE1FFF1FA217B307E407F50729
:100FA00020F0A21BB30BE40BF50B661F771F881F05
:100FB000991F1A9469F760957095809590959B019B
:100FC000AC01BD01CF010895A29FB001B39FC00144
:100FD000A39F700D811D1124911DB29F700D811D65
:100FE0001124911D0895991B79E004C0991F96174B
:100FF00008F0961B881F7A95C9F780950895EE0F23
:10100000FF1F881F8BBF0790F691E02D1994F8946D
:02101000FFCF10
:00000001FF
