:100000000C942F010C9460010C9460010C9460011D
:100010000C9460010C9460010C9460010C946001DC
:100020000C9460010C9460010C9460010C946001CC
:100030000C9460010C9460010C9460010C946001BC
:100040000C9460010C9460010C9460010C946001AC
:100050000C9460010C9460010C9460010C94770482
:100060000C9460010C9460010C9460010C9460018C
:100070000C9460010C9460010C9460010C9460017C
:100080000C9460010C9460010C9460010C9460016C
:100090000C9460010C9460010C9460010C9460015C
:1000A0000C9460010C9460010C9460010C9460014C
:1000B0000C9460010C9460010C9460010C9460013C
:1000C0000C9460010C9460010C9460010C9460012C
:1000D0000C9460010C9460010C9460010C9460011C
:1000E0000C9460010C9471040C94A3020C94E5012F
:1000F0000C94A4020C9411020C94F9010C94E201EA
:100100000C94EB010C9415020C9407020C9403025E
:100110000C94C4010C94F5010C94BF010C94D6010D
:100120000C940B020C94CC070C9462010C94DA0131
:100130000C94DE010C94FD010C94EF0100002100F1
:10014000240027002A002D003000330001010000A8
:10015000040107010A0100002200250028002B00ED
:100160002E003100340002010000050108010B01DE
:1001700000000A0B02090C0D0E0807030401000021
:10018000000000000000000000000000000000006F
:10019000000000000000000000000000121110002C
:1001A000000000000000000000000000000000004F
:1001B00000000000000000002000230026002900AD
:1001C0002C002F003200000100000301060109018C
:1001D00005050505070508080808020202020A0AC3
:1001E00008080404040401010101010101010303E1
:1001F000030303030303040707070C0C0C0C0C0C8C
:100200000C0C0202020206060606060606060B0B88
:100210000B0B0B0B0B0B01021020200808102040C9
:1002200010204080020102010804020101020408BA
:100230001020408080402010080402018004020148
:100240008040201008040201080402010102040891
:10025000102040800102040810204080CC071124A7
:100260001FBECFEFD1E2DEBFCDBF00E00CBF12E07A
:10027000A0E0B2E0E4EAF4E100E00BBF02C00790C6
:100280000D92A036B107D9F722E0A0E6B2E001C096
:100290001D92A139B207E1F711E0CFE2D1E000E011
:1002A00006C021970109802FFE010E94480ACE3224
:1002B000D10780E00807A9F70E9406050C94500AB0
:1002C0000C940000AF92BF92CF92DF92EF92FF9218
:1002D0000F931F93CF93DF936C017B018B01040F6E
:1002E000151FEB015E01AE18BF08C017D10759F00A
:1002F0006991D601ED91FC910190F081E02DC6014C
:100300001995892B79F7C501DF91CF911F910F9135
:10031000FF90EF90DF90CF90BF90AF900895282F7F
:1003200030E0F901E059FE4F9491F901EA5EFD4F8A
:10033000449120533E4FF9012491222309F435C002
:10034000992311F191509231F8F4E92FF0E08827C8
:10035000E355FE4F8F4F0C94480ADE01E201BF01C6
:10036000D601DA01C401E501EB01EF01F501F90164
:10037000FD0103020702C4010B0211021502809164
:1003800080008F7780938000E22FF0E0EE0FFF1F58
:10039000EA5AFE4FA591B4918FB7F894EC91611190
:1003A00048C040954E234C938FBF089580918000A4
:1003B0008F7DE8CF80918000877FE4CF84B58F77F1
:1003C00084BDE2CF84B58F7DFBCF8091B0008F7765
:1003D0008093B000D9CF8091B0008F7DF9CF80910C
:1003E00090008F7780939000CFCF809190008F7D89
:1003F000F9CF80919000877FF5CF8091A0008F7713
:100400008093A000C1CF8091A0008F7DF9CF809113
:10041000A000877FF5CF809120018F778093200106
:10042000B3CF809120018F7DF9CF80912001877F0C
:10043000F5CF4E2BB8CFCF93DF9390E0FC01EA5E6F
:10044000FD4F249180539E4FFC0184918823D1F06D
:1004500090E0880F991FFC01E45CFE4FA591B491D8
:10046000FC01EA5AFE4FC591D49161110EC09FB7AD
:10047000F8948C91E22FE0958E238C932881E223CF
:10048000E8839FBFDF91CF9108958FB7F894EC91E7
:10049000E22BEC938FBFF6CF3FB7F89480916502C3
:1004A00090916602A0916702B091680226B5A89B60
:1004B00005C02F3F19F00196A11DB11D3FBFBA2FF6
:1004C000A92F982F8827BC01CD01620F711D811DB6
:1004D000911D42E0660F771F881F991F4A95D1F73B
:1004E00008958F929F92AF92BF92CF92DF92EF9238
:1004F000FF924B015C010E944C026B017C010E9447
:100500004C026C197D098E099F09683E7340810574
:100510009105A8F321E0821A9108A108B10888EE9C
:10052000C80E83E0D81EE11CF11C81149104A104C3
:10053000B10429F7FF90EF90DF90CF90BF90AF907C
:100540009F908F900895089590E080E00895FC01B9
:1005500001900020E9F73197AF01481B590BBC010E
:1005600089E792E00C9462018F929F92AF92BF92C2
:100570000F931F93CF93DF93CDB7DEB7A1970FB63D
:10058000F894DEBF0FBECDBF19A2423008F44AE096
:100590008E010F5D1F4F842E912CB12CA12CA50133
:1005A00094010E94260AE62FB901CA01EA30F4F448
:1005B000E05DD801EE938D01232B242B252B79F7B9
:1005C00090E080E0109719F0CD010E94A702A1965B
:1005D0000FB6F894DEBF0FBECDBFDF91CF911F9154
:1005E0000F91BF90AF909F908F900895E95CE1CFFD
:1005F0000F931F9390E0FC01EA5EFD4F6491FC01B4
:10060000E053FE4FE491F0E0EE0FFF1FEA54FE4F7F
:100610008591949100E412E42FE030E0462F0E948F
:10062000C104611571058105910529F06F5F7F4F48
:100630008F4F9F4F9F701F910F910895CF93DF931E
:10064000EC0160E08E810E948F0161E08E810E944A
:100650008F0160E08E810E948F018BE891E001970D
:10066000F1F7DF91CF910895CF92DF92EF92FF9251
:100670000F931F93CF93DF936C017C0187E0E80E0B
:10068000F11CD0E0C0E0062F10E0B8010C2E02C033
:10069000759567950A94E2F76170F70181917F0182
:1006A0000E948F012196C430D10579F7C601DF91F0
:1006B000CF911F910F91FF90EF90DF90CF900C940E
:1006C0001E03CF92DF92EF92FF920F931F93CF936F
:1006D000DF93EC01F62E642F8C810E948F018D81B7
:1006E0008F3F19F060E00E948F010F2D10E08F8581
:1006F00084FF25C06E0187E0C80ED11CF12CE12CCF
:10070000B8010E2C02C0759567950A94E2F76170E6
:10071000F60181916F010E948F01FFEFEF1AFF0A2E
:1007200088E0E816F10461F7CE01DF91CF911F91C7
:100730000F91FF90EF90DF90CF900C941E03B801C3
:1007400084E0759567958A95E1F7CE010E943403A0
:100750006F2DCE01DF91CF911F910F91FF90EF9000
:10076000DF90CF900C94340340E0682F89E792E04B
:100770000C94610381E00E94B4038BE39FE1019735
:10078000F1F70895CF93DF93823029F49091880296
:1007900098609093880280938C0210928D0280E47E
:1007A00080938E0280E180938F0280E58093900297
:1007B00061E080917D020E941B0280917E028F3F4A
:1007C00019F061E00E941B0261E080917F020E94AB
:1007D0001B02C9E7D2E09E0129573240809188026E
:1007E00084FD0BC084E090E021962817390744F47B
:1007F00061E08E810E941B02EECF88E090E0F4CF92
:100800008BE39DE00197F1F760E080917D020E940B
:100810008F0160E080917F020E948F0180917E02B3
:100820008F3F19F060E00E948F018091880284FD63
:1008300034C063E089E792E00E943403CBE4D6E45D
:10084000CE010197F1F763E089E792E00E9434035B
:100850002197F1F763E089E792E00E94340383E592
:1008600092E00197F1F762E089E792E00E94340399
:100870008091880280620E94B40384E080938902A0
:100880008CE00E94B4030E94BA0382E080938A0243
:1008900086E0DF91CF910C94B40380620E94B40390
:1008A0008BE496E40197F1F78091880280620E94C0
:1008B000B40383E592E00197F1F7809188028062AA
:1008C0000E94B403D5CF90918C02891710F08FEF5E
:1008D000890FE82FF0E0E758FD4F848980680C9479
:1008E000B40341E00E94610381E090E008951F920B
:1008F0000F920FB60F9211242F933F938F939F93D4
:10090000AF93BF938091610290916202A0916302C4
:10091000B09164023091600223E0230F2D3758F527
:100920000196A11DB11D20936002809361029093F6
:100930006202A0936302B093640280916502909179
:100940006602A0916702B09168020196A11DB11DD7
:100950008093650290936602A0936702B093680249
:10096000BF91AF919F918F913F912F910F900FBEAB
:100970000F901F90189526E8230F0296A11DB11D18
:10098000D2CFCF92DF92EF92FF920F931F93E82F77
:10099000F92F05C0015011092109310961F1908138
:1009A00096239417B9F305C00150110921093109A3
:1009B00011F1908196239413F7CFC12CD12CE12C07
:1009C000F12C0AC08FEFC81AD80AE80AF80A0C15E9
:1009D0001D052E053F0579F080818623841791F34C
:1009E0006C2D7D2D8E2D9F2D1F910F91FF90EF90DF
:1009F000DF90CF90089560E070E080E090E01F917C
:100A00000F91FF90EF90DF90CF900895789484B588
:100A1000826084BD84B5816084BD85B5826085BDFA
:100A200085B5816085BD80916E00816080936E0088
:100A3000109281008091810082608093810080917A
:100A4000810081608093810080918000816080932B
:100A500080008091B10084608093B1008091B000EB
:100A600081608093B00080919100826080939100BA
:100A700080919100816080939100809190008160CD
:100A8000809390008091A10082608093A10080916A
:100A9000A10081608093A1008091A000816080937B
:100AA000A000809121018260809321018091210129
:100AB00081608093210180912001816080932001D9
:100AC00080917A00846080937A0080917A008260BD
:100AD00080937A0080917A00816080937A0080917F
:100AE0007A00806880937A001092C10061E08EE203
:100AF0000E941B0260E080E30E941B0261E088E12B
:100B00000E941B0282E00E94C20380E00E946304F4
:100B10008CE092E00E94A70281E00E94630484E1DD
:100B200092E00E94A70260ED77E080E090E00E94F2
:100B300071020E94BA0361E082E30E941B0260E03E
:100B400084E30E941B0261E08CE10E941B0261E0D1
:100B50008FE10E941B0260E081E20E941B0261E0C3
:100B600080E20E941B0261E083E20E941B0260E0BF
:100B700085E20E941B0261E084E20E941B02C3E046
:100B8000D0E003E210E080E0A82E80E0B82E60E024
:100B90008EE20E948F01CE010197F1F761E08EE2B3
:100BA0000E948F01C8010197F1F760E08EE20E9478
:100BB0008F01CE010197F1F780E30E94F8020E94B5
:100BC000FD0820E030E04AEA53E40E94B40920E046
:100BD00030E44CE956E40E945C086093750270931F
:100BE0007602809377029093780280E00E946304FB
:100BF0008CE092E00E94A70281E00E9463048DE1F4
:100C000092E00E94A702C0907502D0907602E09018
:100C10007702F0907802A7019601C701B6010E9401
:100C2000210A882309F411C187E292E00E94A702F9
:100C300083E392E00E94A70268EE73E080E090E018
:100C40000E9471020E94BA0360E082E30E948F0159
:100C5000CE010197F1F761E082E30E948F01C801A4
:100C60000197F1F760E082E30E948F01CE010197C6
:100C7000F1F784E30E94F8020E94FD0820E030E0D2
:100C80004AEA53E40E94B40920E030E44CE956E417
:100C90000E945C08609371027093720280937302E9
:100CA0009093740260E08FE10E948F01CE01019762
:100CB000F1F761E08FE10E948F01C8010197F1F720
:100CC00060E08FE10E948F01CE010197F1F781E290
:100CD0000E94F8020E94FD0820E030E04AEA53E456
:100CE0000E94B40920E030E44CE956E40E945C081C
:100CF00060936D0270936E0280936F029093700206
:100D000060E083E20E948F01CE010197F1F761E07C
:100D100083E20E948F01C8010197F1F760E083E24E
:100D20000E948F01CE010197F1F785E20E94F8023F
:100D30000E94FD0820E030E04AEA53E40E94B40932
:100D400020E030E44CE956E40E945C0860936902BC
:100D500070936A0280936B0290936C0220E030E003
:100D600046E953E4609175027091760280917702B2
:100D7000909178020E94570887FFFBC061E088E1EC
:100D80000E948F0180E00E94630485E392E00E944C
:100D9000A70281E00E94630481E492E00E94A7021E
:100DA00068EB7BE080E090E00E94710261E088E106
:100DB0000E948F0168EE73E080E090E00E94710273
:100DC0000E94BA0320E030E046E953E460917102EA
:100DD0007091720280917302909174020E94570880
:100DE00061E087FF60E08CE10E948F0120E030E04D
:100DF00046E953E460916D0270916E0280916F023A
:100E0000909170020E94570861E087FF60E080E2E5
:100E10000E948F0120E030E046E953E460916902CE
:100E200070916A0280916B0290916C020E94570847
:100E300061E087FF60E084E20E948F01A114B104A9
:100E400009F4A5CE0E940000A2CE26013701E89445
:100E500077F82FEF3FEF4FE75FE7C301B2010E9442
:100E6000210A81110DC02FEF3FEF4FE75FE7C3016C
:100E7000B2010E94570818161CF48BE292E0D6CEFD
:100E80002FEF3FEF4FE75FE4C701B6010E94AF09C4
:100E900018161CF48FE292E0C9CE2FEF3FEF4FE718
:100EA0005FECC701B6010E94570887FDF3CF20E031
:100EB00030E0A901C701B6010E94570887FF0AC0A8
:100EC00041E06DE289E792E00E946103F7FAF09455
:100ED000F7F8F0942AE037ED43EA5BE3C701B60187
:100EE0000E94EB072B013C010E94CE086B017C01A4
:100EF0000E94FD089B01AC01C301B2010E94EA07F8
:100F00002B013C014AE0C701B6010E94B40241E056
:100F10006EE289E792E00E94610320E030E040E267
:100F200051E4C301B2010E94B4092B013C010E94AB
:100F3000CE086B01F12CE12C4AE0C701B6010E94FA
:100F4000B402C701B6010E94FD089B01AC01C301B8
:100F5000B2010E94EA0720E030E040E251E40E9442
:100F6000B4090E94CE0890E080E04AE00E94B402FA
:100F70005FCE60E088E10E948F0180E00E94630400
:100F800089E492E00E94A70281E00E94630486E562
:100F900092E00E94A7020ECFE9E7F2E013821282EC
:100FA00084E092E09183808386E384838FEF85835E
:100FB00087E3868388E3878389E380878AE3818761
:100FC0008BE382871386148615861686178681E042
:100FD0000C94C2035058BB27AA270E9402080C9405
:100FE00075090E94670938F00E946E0920F039F4F3
:100FF0009F3F19F426F40C9464090EF4E095E7FB86
:101000000C945E09E92F0E94860958F3BA1762070B
:1010100073078407950720F079F4A6F50C94A809C6
:101020000EF4E0950B2EBA2FA02D0B01B901900103
:101030000C01CA01A0011124FF27591B99F0593F47
:1010400050F4503E68F11A16F040A22F232F342F8F
:101050004427585FF3CF469537952795A795F040DD
:101060005395C9F77EF41F16BA0B620B730B840BF2
:10107000BAF09150A1F0FF0FBB1F661F771F881FAA
:10108000C2F70EC0BA0F621F731F841F48F4879502
:1010900077956795B795F7959E3F08F0B0CF9395F4
:1010A000880F08F09927EE0F9795879508950E946D
:1010B0003A0908F481E008950E9470080C947509BB
:1010C0000E946E0958F00E94670940F029F45F3FC2
:1010D00029F00C945E0951110C94A9090C9464092F
:1010E0000E94860968F39923B1F3552391F3951B68
:1010F000550BBB27AA2762177307840738F09F5F39
:101100005F4F220F331F441FAA1FA9F335D00E2EA5
:101110003AF0E0E832D091505040E695001CCAF712
:101120002BD0FE2F29D0660F771F881FBB1F2617D5
:1011300037074807AB07B0E809F0BB0B802DBF01AC
:10114000FF2793585F4F3AF09E3F510578F00C947B
:101150005E090C94A9095F3FE4F3983ED4F38695A9
:1011600077956795B795F7959F5FC9F7880F911D9C
:101170009695879597F90895E1E0660F771F881F88
:10118000BB1F621773078407BA0720F0621B730B3B
:10119000840BBA0BEE1F88F7E09508950E948E0924
:1011A00088F09F5798F0B92F9927B751B0F0E1F028
:1011B000660F771F881F991F1AF0BA95C9F714C0D8
:1011C000B13091F00E94A809B1E008950C94A809EB
:1011D000672F782F8827B85F39F0B93FCCF3869511
:1011E00077956795B395D9F73EF49095809570956E
:1011F00061957F4F8F4F9F4F0895E89409C097FBEB
:101200003EF490958095709561957F4F8F4F9F4FDD
:101210009923A9F0F92F96E9BB279395F695879521
:1012200077956795B795F111F8CFFAF4BB0F11F4E4
:1012300060FF1BC06F5F7F4F8F4F9F4F16C088238B
:1012400011F096E911C0772321F09EE8872F762FC1
:1012500005C0662371F096E8862F70E060E02AF002
:101260009A95660F771F881FDAF7880F96958795EE
:1012700097F90895990F0008550FAA0BE0E8FEEFC3
:1012800016161706E807F907C0F012161306E4074A
:10129000F50798F0621B730B840B950B39F40A2643
:1012A00061F0232B242B252B21F408950A2609F421
:1012B000A140A6958FEF811D811D089597F99F6725
:1012C00080E870E060E008959FEF80EC08950024CE
:1012D0000A941616170618060906089500240A949B
:1012E00012161306140605060895092E0394000C21
:1012F00011F4882352F0BB0F40F4BF2B11F460FFB0
:1013000004C06F5F7F4F8F4F9F4F089557FD9058D8
:10131000440F551F59F05F3F71F04795880F97FBB9
:10132000991F61F09F3F79F0879508951216130673
:101330001406551FF2CF4695F1DF08C016161706A2
:101340001806991FF1CF86957105610508940895D7
:10135000E894BB2766277727CB0197F908950E9469
:101360003A0908F48FEF08950E94C7090C94750993
:101370000E94670938F00E946E0920F0952311F051
:101380000C945E090C94640911240C94A9090E9420
:10139000860970F3959FC1F3950F50E0551F629F2A
:1013A000F001729FBB27F00DB11D639FAA27F00DBE
:1013B000B11DAA1F649F6627B00DA11D661F829FE5
:1013C0002227B00DA11D621F739FB00DA11D621FCA
:1013D000839FA00D611D221F749F3327A00D611DE7
:1013E000231F849F600D211D822F762F6A2F1124C9
:1013F0009F5750409AF0F1F088234AF0EE0FFF1FFC
:10140000BB1F661F771F881F91505040A9F79E3F52
:10141000510580F00C945E090C94A9095F3FE4F338
:10142000983ED4F3869577956795B795F795E795A8
:101430009F5FC1F7FE2B880F911D9695879597F9B1
:1014400008950E943A09880B990B0895A1E21A2E7B
:10145000AA1BBB1BFD010DC0AA1FBB1FEE1FFF1F58
:10146000A217B307E407F50720F0A21BB30BE40BA8
:10147000F50B661F771F881F991F1A9469F76095EF
:101480007095809590959B01AC01BD01CF010895A9
:10149000EE0FFF1F881F8BBF0790F691E02D199468
:0414A000F894FFCFEE
:1014A4000000000071046201A402A3025665686989
:1014B400636C650044697374616E6365006469619B
:1014C40074616E63653A006E616E00696E66006FEA
:1014D4007666004D0056656869636C65204F5A4313
:1014E4000046494E452121210056656869636C65B3
:1014F400204E4F5A43004E4F2046494E452121006D
:00000001FF
